{
  "_format": "hh-sol-artifact-1",
  "contractName": "Persons",
  "sourceName": "contracts/Persons.sol",
  "abi": [
    {
      "inputs": [],
      "name": "getPersonArray",
      "outputs": [
        {
          "components": [
            {
              "internalType": "string",
              "name": "name",
              "type": "string"
            },
            {
              "internalType": "uint256",
              "name": "age",
              "type": "uint256"
            },
            {
              "internalType": "uint256",
              "name": "timestamp",
              "type": "uint256"
            },
            {
              "internalType": "string",
              "name": "message",
              "type": "string"
            }
          ],
          "internalType": "struct Persons.Person[]",
          "name": "",
          "type": "tuple[]"
        }
      ],
      "stateMutability": "view",
      "type": "function"
    },
    {
      "inputs": [
        {
          "internalType": "uint256",
          "name": "",
          "type": "uint256"
        }
      ],
      "name": "persons",
      "outputs": [
        {
          "internalType": "string",
          "name": "name",
          "type": "string"
        },
        {
          "internalType": "uint256",
          "name": "age",
          "type": "uint256"
        },
        {
          "internalType": "uint256",
          "name": "timestamp",
          "type": "uint256"
        },
        {
          "internalType": "string",
          "name": "message",
          "type": "string"
        }
      ],
      "stateMutability": "view",
      "type": "function"
    },
    {
      "inputs": [
        {
          "internalType": "uint256",
          "name": "index",
          "type": "uint256"
        }
      ],
      "name": "removePerson",
      "outputs": [],
      "stateMutability": "nonpayable",
      "type": "function"
    },
    {
      "inputs": [
        {
          "internalType": "string",
          "name": "name",
          "type": "string"
        },
        {
          "internalType": "uint256",
          "name": "age",
          "type": "uint256"
        },
        {
          "internalType": "string",
          "name": "message",
          "type": "string"
        }
      ],
      "name": "setPersonObj",
      "outputs": [],
      "stateMutability": "nonpayable",
      "type": "function"
    },
    {
      "inputs": [
        {
          "internalType": "uint256",
          "name": "i",
          "type": "uint256"
        },
        {
          "components": [
            {
              "internalType": "string",
              "name": "name",
              "type": "string"
            },
            {
              "internalType": "uint256",
              "name": "age",
              "type": "uint256"
            },
            {
              "internalType": "uint256",
              "name": "timestamp",
              "type": "uint256"
            },
            {
              "internalType": "string",
              "name": "message",
              "type": "string"
            }
          ],
          "internalType": "struct Persons.Person",
          "name": "updatedPerson",
          "type": "tuple"
        }
      ],
      "name": "updatePerson",
      "outputs": [],
      "stateMutability": "nonpayable",
      "type": "function"
    }
  ],
  "bytecode": "0x608060405234801561001057600080fd5b50611388806100206000396000f3fe608060405234801561001057600080fd5b50600436106100575760003560e01c8063691ebe841461005c5780636cc9d1051461007a5780637b64afb214610096578063a2f9eac6146100b2578063e2c93c29146100e5575b600080fd5b610064610101565b6040516100719190610960565b60405180910390f35b610094600480360381019061008f9190610af7565b610298565b005b6100b060048036038101906100ab9190610c3c565b610331565b005b6100cc60048036038101906100c79190610c98565b6104a3565b6040516100dc9493929190610d1e565b60405180910390f35b6100ff60048036038101906100fa9190610c98565b6105f3565b005b60606000805480602002602001604051908101604052809291908181526020016000905b8282101561028f578382906000526020600020906004020160405180608001604052908160008201805461015890610da0565b80601f016020809104026020016040519081016040528092919081815260200182805461018490610da0565b80156101d15780601f106101a6576101008083540402835291602001916101d1565b820191906000526020600020905b8154815290600101906020018083116101b457829003601f168201915b5050505050815260200160018201548152602001600282015481526020016003820180546101fe90610da0565b80601f016020809104026020016040519081016040528092919081815260200182805461022a90610da0565b80156102775780601f1061024c57610100808354040283529160200191610277565b820191906000526020600020905b81548152906001019060200180831161025a57829003601f168201915b50505050508152505081526020019060010190610125565b50505050905090565b60006040518060800160405280858152602001848152602001428152602001838152509050600081908060018154018082558091505060019003906000526020600020906004020160009091909190915060008201518160000190816102fe9190610f7d565b50602082015181600101556040820151816002015560608201518160030190816103289190610f7d565b50505050505050565b6000805490508210610378576040517f08c379a000000000000000000000000000000000000000000000000000000000815260040161036f9061109b565b60405180910390fd5b6000816000015151116103c0576040517f08c379a00000000000000000000000000000000000000000000000000000000081526004016103b790611107565b60405180910390fd5b6000816020015111610407576040517f08c379a00000000000000000000000000000000000000000000000000000000081526004016103fe90611173565b60405180910390fd5b60006040518060800160405280836000015181526020018360200151815260200142815260200183606001518152509050806000848154811061044d5761044c611193565b5b906000526020600020906004020160008201518160000190816104709190610f7d565b506020820151816001015560408201518160020155606082015181600301908161049a9190610f7d565b50905050505050565b600081815481106104b357600080fd5b90600052602060002090600402016000915090508060000180546104d690610da0565b80601f016020809104026020016040519081016040528092919081815260200182805461050290610da0565b801561054f5780601f106105245761010080835404028352916020019161054f565b820191906000526020600020905b81548152906001019060200180831161053257829003601f168201915b50505050509080600101549080600201549080600301805461057090610da0565b80601f016020809104026020016040519081016040528092919081815260200182805461059c90610da0565b80156105e95780601f106105be576101008083540402835291602001916105e9565b820191906000526020600020905b8154815290600101906020018083116105cc57829003601f168201915b5050505050905084565b600080549050811061063a576040517f08c379a00000000000000000000000000000000000000000000000000000000081526004016106319061109b565b60405180910390fd5b6000600160008054905061064e91906111f1565b8154811061065f5761065e611193565b5b90600052602060002090600402016000828154811061068157610680611193565b5b9060005260206000209060040201600082018160000190816106a3919061123b565b506001820154816001015560028201548160020155600382018160030190816106cc919061123b565b5090505060008054806106e2576106e1611323565b5b600190038181906000526020600020906004020160008082016000610707919061072e565b60018201600090556002820160009055600382016000610727919061072e565b5050905550565b50805461073a90610da0565b6000825580601f1061074c575061076b565b601f01602090049060005260206000209081019061076a919061076e565b5b50565b5b8082111561078757600081600090555060010161076f565b5090565b600081519050919050565b600082825260208201905092915050565b6000819050602082019050919050565b600081519050919050565b600082825260208201905092915050565b60005b838110156107f15780820151818401526020810190506107d6565b60008484015250505050565b6000601f19601f8301169050919050565b6000610819826107b7565b61082381856107c2565b93506108338185602086016107d3565b61083c816107fd565b840191505092915050565b6000819050919050565b61085a81610847565b82525050565b6000608083016000830151848203600086015261087d828261080e565b91505060208301516108926020860182610851565b5060408301516108a56040860182610851565b50606083015184820360608601526108bd828261080e565b9150508091505092915050565b60006108d68383610860565b905092915050565b6000602082019050919050565b60006108f68261078b565b6109008185610796565b935083602082028501610912856107a7565b8060005b8581101561094e578484038952815161092f85826108ca565b945061093a836108de565b925060208a01995050600181019050610916565b50829750879550505050505092915050565b6000602082019050818103600083015261097a81846108eb565b905092915050565b6000604051905090565b600080fd5b600080fd5b600080fd5b600080fd5b7f4e487b7100000000000000000000000000000000000000000000000000000000600052604160045260246000fd5b6109d8826107fd565b810181811067ffffffffffffffff821117156109f7576109f66109a0565b5b80604052505050565b6000610a0a610982565b9050610a1682826109cf565b919050565b600067ffffffffffffffff821115610a3657610a356109a0565b5b610a3f826107fd565b9050602081019050919050565b82818337600083830152505050565b6000610a6e610a6984610a1b565b610a00565b905082815260208101848484011115610a8a57610a8961099b565b5b610a95848285610a4c565b509392505050565b600082601f830112610ab257610ab1610996565b5b8135610ac2848260208601610a5b565b91505092915050565b610ad481610847565b8114610adf57600080fd5b50565b600081359050610af181610acb565b92915050565b600080600060608486031215610b1057610b0f61098c565b5b600084013567ffffffffffffffff811115610b2e57610b2d610991565b5b610b3a86828701610a9d565b9350506020610b4b86828701610ae2565b925050604084013567ffffffffffffffff811115610b6c57610b6b610991565b5b610b7886828701610a9d565b9150509250925092565b600080fd5b600080fd5b600060808284031215610ba257610ba1610b82565b5b610bac6080610a00565b9050600082013567ffffffffffffffff811115610bcc57610bcb610b87565b5b610bd884828501610a9d565b6000830152506020610bec84828501610ae2565b6020830152506040610c0084828501610ae2565b604083015250606082013567ffffffffffffffff811115610c2457610c23610b87565b5b610c3084828501610a9d565b60608301525092915050565b60008060408385031215610c5357610c5261098c565b5b6000610c6185828601610ae2565b925050602083013567ffffffffffffffff811115610c8257610c81610991565b5b610c8e85828601610b8c565b9150509250929050565b600060208284031215610cae57610cad61098c565b5b6000610cbc84828501610ae2565b91505092915050565b600082825260208201905092915050565b6000610ce1826107b7565b610ceb8185610cc5565b9350610cfb8185602086016107d3565b610d04816107fd565b840191505092915050565b610d1881610847565b82525050565b60006080820190508181036000830152610d388187610cd6565b9050610d476020830186610d0f565b610d546040830185610d0f565b8181036060830152610d668184610cd6565b905095945050505050565b7f4e487b7100000000000000000000000000000000000000000000000000000000600052602260045260246000fd5b60006002820490506001821680610db857607f821691505b602082108103610dcb57610dca610d71565b5b50919050565b60008190508160005260206000209050919050565b60006020601f8301049050919050565b600082821b905092915050565b600060088302610e337fffffffffffffffffffffffffffffffffffffffffffffffffffffffffffffffff82610df6565b610e3d8683610df6565b95508019841693508086168417925050509392505050565b6000819050919050565b6000610e7a610e75610e7084610847565b610e55565b610847565b9050919050565b6000819050919050565b610e9483610e5f565b610ea8610ea082610e81565b848454610e03565b825550505050565b600090565b610ebd610eb0565b610ec8818484610e8b565b505050565b5b81811015610eec57610ee1600082610eb5565b600181019050610ece565b5050565b601f821115610f3157610f0281610dd1565b610f0b84610de6565b81016020851015610f1a578190505b610f2e610f2685610de6565b830182610ecd565b50505b505050565b600082821c905092915050565b6000610f5460001984600802610f36565b1980831691505092915050565b6000610f6d8383610f43565b9150826002028217905092915050565b610f86826107b7565b67ffffffffffffffff811115610f9f57610f9e6109a0565b5b610fa98254610da0565b610fb4828285610ef0565b600060209050601f831160018114610fe75760008415610fd5578287015190505b610fdf8582610f61565b865550611047565b601f198416610ff586610dd1565b60005b8281101561101d57848901518255600182019150602085019450602081019050610ff8565b8683101561103a5784890151611036601f891682610f43565b8355505b6001600288020188555050505b505050505050565b7f496e646578206f7574206f6620626f756e647300000000000000000000000000600082015250565b6000611085601383610cc5565b91506110908261104f565b602082019050919050565b600060208201905081810360008301526110b481611078565b9050919050565b7f4e616d652063616e6e6f7420626520656d707479000000000000000000000000600082015250565b60006110f1601483610cc5565b91506110fc826110bb565b602082019050919050565b60006020820190508181036000830152611120816110e4565b9050919050565b7f416765206d7573742062652067726561746572207468616e207a65726f000000600082015250565b600061115d601d83610cc5565b915061116882611127565b602082019050919050565b6000602082019050818103600083015261118c81611150565b9050919050565b7f4e487b7100000000000000000000000000000000000000000000000000000000600052603260045260246000fd5b7f4e487b7100000000000000000000000000000000000000000000000000000000600052601160045260246000fd5b60006111fc82610847565b915061120783610847565b925082820390508181111561121f5761121e6111c2565b5b92915050565b60008154905061123481610da0565b9050919050565b818103611249575050611321565b61125282611225565b67ffffffffffffffff81111561126b5761126a6109a0565b5b6112758254610da0565b611280828285610ef0565b6000601f8311600181146112af576000841561129d578287015490505b6112a78582610f61565b86555061131a565b601f1984166112bd87610dd1565b96506112c886610dd1565b60005b828110156112f0578489015482556001820191506001850194506020810190506112cb565b8683101561130d5784890154611309601f891682610f43565b8355505b6001600288020188555050505b5050505050505b565b7f4e487b7100000000000000000000000000000000000000000000000000000000600052603160045260246000fdfea26469706673582212208612d6f74f532442eaf986ef3fc2271a3616cc9a267a3f361993e6255c7ec3da64736f6c63430008110033",
  "linkReferences": {},
  "deployedLinkReferences": {}
}